:020000040000fa
:080000000002040000000000f2
:020000040000fa
:100400004f8520000edf20000e0188000000000054
:1004100000012000200288000c0007000057200087
:100420000100200011000700000020000000e00093
:100430000200320000000200000000004a05020035
:10044000000000000040da000000fe004440a90067
:10045000000020000000e000030032000000200047
:10046000a00188004440a800000006009101880017
:10047000800078000000eb0015003700e2804000ab
:1004800032a0b4009101ba00e280400032a0b40072
:100490009102ba00e280400032a0b4000002eb00fa
:1004a000472bde00f507b200602ce10004003a00a3
:1004b0000059eb008301e900fdff3e000400370016
:1004c0006128e100010032000082eb000400070017
:1004d0001101ba000200e000e8ff3a000000060047
:1004e0003159ba008301e9000c0032002159ba00e9
:1004f0008301e900080032000400e00003003a0034
:10050000e280400032a0b400f5ff370011d9ba00f4
:100510008301e900faff3a008100e800e180400031
:1005200032a0b400000006000040da000000fe0027
:020000040000fa
:0200000401f009
:04000800ffff0000f6
:020000040000fa
:0200000401f009
:04000c007aff000077
:020000040000fa
:0200000401f009
:04001000baff000033
:020000040000fa
:0200000401f009
:040014007fff00006a
:020000040000fa
:0200000401f009
:04001800f6ff0000ef
:020000040000fa
:0200000401f009
:040020003fff00009e
:020000040000fa
:100008009402000094020000940200009402000090
:100018009402000094020000940200009402000080
:100028009402000094020000940200009402000070
:100038009402000094020000940200009402000060
:100048009402000094020000940200008a03000059
:100058009402000094020000940200009402000040
:100068009402000094020000940200009402000030
:100078009402000094020000940200009402000020
:100088009402000094020000940200009402000010
:100098009402000094020000ec04000094020000a6
:1000a80094020000940200009402000094020000f0
:1000b80094020000940200009402000094020000e0
:1000c80094020000940200009402000094020000d0
:1000d80094020000940200009402000094020000c0
:1000e80094020000940200009402000094020000b0
:1000f80094020000940200009402000094020000a0
:10010800940200009402000094020000940200008f
:10011800940200009402000094020000940200007f
:10012800940200009402000094020000940200006f
:10013800940200009402000094020000940200005f
:10014800940200009402000094020000940200004f
:10015800940200009402000094020000940200003f
:10016800940200009402000094020000940200002f
:10017800940200009402000094020000940200001f
:10018800940200009402000094020000940200000f
:1001980094020000940200009402000094020000ff
:1001a80094020000940200009402000094020000ef
:1001b80094020000940200009402000094020000df
:1001c80094020000940200009402000094020000cf
:1001d80094020000940200009402000094020000bf
:1001e80094020000940200009402000094020000af
:0801f8009402000094020000d3
:020000040000fa
:10020800940200009402000094020000940200008e
:10021800940200009402000094020000940200007e
:10022800940200009402000094020000940200006e
:10023800940200009402000094020000940200005e
:100248009402000094020000940200008a03000057
:10025800940200009402000094020000940200003e
:10026800940200009402000094020000940200002e
:10027800940200009402000094020000940200001e
:10028800940200009402000094020000940200000e
:100298009402000094020000ec04000094020000a4
:1002a80094020000940200009402000094020000ee
:1002b80094020000940200009402000094020000de
:1002c80094020000940200009402000094020000ce
:1002d80094020000940200009402000094020000be
:1002e80094020000940200009402000094020000ae
:1002f800940200009402000094020000940200009e
:10030800940200009402000094020000940200008d
:10031800940200009402000094020000940200007d
:10032800940200009402000094020000940200006d
:10033800940200009402000094020000940200005d
:10034800940200009402000094020000940200004d
:10035800940200009402000094020000940200003d
:10036800940200009402000094020000940200002d
:10037800940200009402000094020000940200001d
:10038800940200009402000094020000940200000d
:1003980094020000940200009402000094020000fd
:1003a80094020000940200009402000094020000ed
:1003b80094020000940200009402000094020000dd
:1003c80094020000940200009402000094020000cd
:1003d80094020000940200009402000094020000bd
:1003e80094020000940200009402000094020000ad
:0803f8009402000094020000d1
:020000040000fa
:100530000400fa001007980094012000040f7800ce
:100540002c83a8001e02780044118800a9c0a800ce
:10055000a9a0a900a980a9000002eb00141188003d
:1005600021e2a8002342a8009560a8008560a900a8
:100570000080fa00000006000000fa008560a90073
:100580009560a9000002eb001411880021e2a90087
:100590002c83a9000080fa00000006000000fa0089
:1005a0000000000015118000042020000482620079
:1005b000e00f5200fbff3a000080fa000000060046
:1005c0000000fa00148020001442780004407800f3
:1005d0000080fa00000006000200fa00004f7800d8
:1005e0000000000015118000042020000482620039
:1005f000e00f5200fbff3a009e4278000582fb00ac
:10060000241188000080fa00000006000400fa00af
:10061000100798000002eb00040f78000700370075
:100620001e0278009e02900004824200144278006c
:1006300004407800e8ff07001e0fe8001e02780063
:100640009e0290000482420014427800e04f520063
:10065000f3ff3a000080fa00000006000400fa00f0
:1006600084428000e00f5200090034008442800080
:100670000402e900844288000480200014427800cb
:10068000244798000002eb00040f78000a003700ae
:100690000042eb000d0037009e02e80004802000bd
:1006a0000482420014427800058020009e824200ad
:1006b000844a78001e0fe800844280009e02780081
:1006c000848f5200f4ff35002e42900004407800e1
:1006d0000080fa00000006000000fa00844280005a
:1006e000040078000080fa00000006000200fa0012
:1006f000000f78001e02780004007800c3ff070096
:10070000a0c0b300b4ff0700040078000080fa0026
:10071000000006003600f800809fbe00829fbe00e9
:10072000849fbe00869fbe003400f80000002000b9
:10073000a00188000000fa0014118000620262002b
:10074000e00f5200020032002222a9001d003700f3
:100750001411800062026200e00f520019003a009a
:100760001411800068026200e00f520015003a0088
:100770001411800064026200e00f520011003a0080
:100780001411800061026200e00f52000d0032007f
:1007900086428000341180000442780005802000e9
:1007a00085024300844a780085428000640220006c
:1007b000848f520003003c00844280000402e80061
:1007c00084428800c30007008560a9000080fa0009
:1007d0003400f9004f03be004f02be004f01be00bf
:1007e0004f00be003600f900004006000400fa0089
:1007f0001007980094012000040f78002c63a800d3
:100800002c43a8001e027800c4118800b340a80041
:10081000b320a900b300a9000002eb0094118800e6
:1008200031e2a8003342a80097c0a80087c0a90001
:100830000080fa00000006000000fa0087c0a9004e
:1008400097c0a9000002eb009411880031e2a900d2
:100850002c63a9002c43a9000080fa0000000600c8
:100860000000fa0000000000951180000420200024
:1008700004826200e00f5200fbff3a000080fa00a1
:10088000000006000000fa00948220001442780064
:10089000044078000080fa00000006000200fa0020
:1008a000004f780000000000951180000420200017
:1008b00004826200e00f5200fbff3a009e42780083
:1008c0000582fb00a41188000080fa0000000600e9
:1008d0000400fa00100798000002eb00040f7800f3
:1008e000070037001e0278009e029000048242003a
:1008f0001442780004407800e8ff07001e0fe8006b
:100900001e0278009e029000048242001442780089
:10091000e04f5200f3ff3a000080fa0000000600aa
:100920000400fa0094428000e00f520009003400f5
:10093000944280000402e9009442880084822000ee
:1009400014427800244798000002eb00040f78005e
:100950000a0037000042eb000d0037009e02e8005d
:1009600084822000048242001442780085822000a4
:100970009e824200844a78001e0fe8009442800064
:100980009e027800848f5200f4ff35002e429000c2
:10099000044078000080fa00000006000000fa0021
:1009a00094428000040078000080fa0000000600f5
:1009b0000200fa00000f78001e02780004007800a0
:1009c000c3ff0700a0c0b300b4ff07000400780015
:1009d0000080fa0000000600849fbe00861f780099
:1009e0003400f80004002000a40188000000fa0090
:1009f0009411800062026200e00f52000200320097
:100a00003222a9001d0037009411800062026200aa
:100a1000e00f520019003a00941180006802620051
:100a2000e00f520015003a00941180006402620049
:100a3000e00f520011003a00941180006102620040
:100a4000e00f52000d00320096428000b411800089
:100a5000044278008582200085024300844a7800a1
:100a60009542800064022000848f520003003c0005
:100a7000944280000402e8009442880087c0a900e4
:100a80000080fa003400f9004f0378004f02be00e6
:100a9000004006000200fa000058220053ff070041
:100aa00000000000bdff070000027800e00f5200c8
:100ab000fcff34009aff070000427800044f7800e2
:100ac0001e4278000440780074ff07000000000018
:100ad000f4ff37000000fa000080fa000000060072
:020000040000fa
:100ae0000008000050000000000000005008000056
:100af00004000000020000000000000000000000f0
:040b000000000000f1
:00000001FF
