:020000040000fa
:080000000002040000000000f2
:020000040000fa
:100400006f8020000edf20000e0188000000000039
:1004100000012000200288000c000700806c2000f2
:100420000100200011000700000020000000e00093
:100430000200320000000200000000008c060200f2
:10044000000000000040da000000fe004440a90067
:10045000000020000000e000030032000000200047
:10046000a00188004440a800000006009101880017
:10047000800078000000eb0015003700e2804000ab
:1004800032a0b4009101ba00e280400032a0b40072
:100490009102ba00e280400032a0b4000002eb00fa
:1004a000472bde00f507b200602ce10004003a00a3
:1004b0000059eb008301e900fdff3e000400370016
:1004c0006128e100010032000082eb000400070017
:1004d0001101ba000200e000e8ff3a000000060047
:1004e0003159ba008301e9000c0032002159ba00e9
:1004f0008301e900080032000400e00003003a0034
:10050000e280400032a0b400f5ff370011d9ba00f4
:100510008301e900faff3a008100e800e180400031
:1005200032a0b400000006000040da000000fe0027
:10053000839f68000100e00002003d0060001000a1
:10054000e08018000300e00002003d00600111009f
:10055000e0811900050007004f00e00002003b00a9
:1005600060001000e0801800000006006022b80063
:10057000060220000000d0008180d2000482d20058
:100580008582d2000000a0000202520083825a003d
:10059000030031000202420083824a000000a100f1
:1005a0000603e900f3ff3a00000006000100200006
:1005b000104088002140880015c0b300048020004e
:1005c000054a780000000600048020008042eb000d
:1005d00094cf120002003a0010002000f3ff070041
:1005e000d2e62400631c24001040800021408000db
:1005f00009000700940323000500200000024200c8
:1006000081824a0014408800254088000500780057
:1006100000f0a10000000600020ab900001bb900aa
:100620000200b80081004200810043000000060083
:020000040000fa
:0200000401f009
:04000800ffff0000f6
:020000040000fa
:0200000401f009
:04000c007aff000077
:020000040000fa
:0200000401f009
:04001000baff000033
:020000040000fa
:0200000401f009
:040014007fff00006a
:020000040000fa
:0200000401f009
:04001800f6ff0000ef
:020000040000fa
:0200000401f009
:040020003fff00009e
:020000040000fa
:100008009402000094020000940200009402000090
:100018009402000094020000940200009402000080
:100028009402000094020000940200009402000070
:100038009402000094020000940200009402000060
:020000040000fa
:020000040000fa
:100630000600fa001007980021079800e2ff070063
:1006400000027800040f7800ae0290001e029000b5
:10065000048252009e027800110009008402d80032
:1006600001027800840278001e0290000482420099
:10067000040078000080fa00000006000600fa007e
:10068000000f780011079800220798001e029000c2
:100690001e021200e00f520002003d001e029000f8
:1006a000070037002e0290001e025200e00f520099
:1006b00002003d002e029000010037001e0278006b
:1006c000040078000080fa00000006001000fa0024
:1006d000008fbe0022079800330798004407980057
:1006e0005507980066079800770798002e0290003b
:1006f000be0290003e031200ae831a003eb897007f
:10070000ceb897006e029000fe02900004025000e6
:100710008582580004b8b9000000780006a9b90025
:10072000820078000100400006037800040278008f
:100730000432b80005004000800278004e009000ae
:10074000de0090002e039000be03900006035000d0
:10075000878358000601be000400be0074ff070036
:100760000002be000403be006e029000fe02900074
:100770000602420087824a000400be000080fa00a0
:10078000000006000400fa00000f7800110798002e
:100790001e027800e00f52000b0034001e027800a9
:1007a000ef0f520008003c00241680001e0190004c
:1007b0009e00780004007800130107000002780012
:1007c00024168800100037001e027800f30f520034
:1007d0000d003400340220009e027800848f520005
:1007e00009003c001e027800f402520064168000ea
:1007f0001e019000850078000400780002010700c7
:1008000000027800641688000080fa0000000600ec
:100810000400fa00100798000002eb00040f7800b3
:100820001e029000e00f5200080034001e029000eb
:10083000ef0f520005003c00151680001e029000cc
:10084000042ade00610f62000c0037001e029000d7
:10085000f30f5200090034009e0290003402200081
:10086000848f520005003c00551680001e02900047
:1008700074025200042ade00610f62001e0278003a
:10088000040078000080fa00000006000400fa006e
:10089000000f7800110798001e027800e00f520048
:1008a0000b0034001e027800ef0f520008003c00dd
:1008b000041680001e0190009e007800040078005d
:1008c000d1000700000278000416880010003700ed
:1008d0001e027800f30f52000d0034003402200095
:1008e0009e027800848f520009003c001e027800ae
:1008f000f4025200441680001e019000850078002a
:1009000004007800c0000700000278004416880048
:100910000080fa00000006000600fa00000f7800d0
:10092000110798002207980081e0a80014048000b5
:100930001e0190009e00780004007800b2000700bd
:1009400000027800140488001e027800e10f5200b3
:100950002c003200e20f520052003200e00f520031
:1009600079003a008000eb002e0090009b00070009
:1009700000427800614262000482fb006102620072
:1009800026058000e5ff2f008502630004827200c7
:1009900024058800110020002e0090008f00070021
:1009a00000427800614262000482fb006102620042
:1009b0000402420026058000d5ff2f008502630057
:1009c0000482720024058800210020002e0090007f
:1009d0008200070000427800614262000482fb004e
:1009e000610262004222dd0026058000b5ff2f0073
:1009f0008502630004827200240588009400a80028
:100a0000510037008000eb002e00900073000700bb
:100a100000427800614262000482fb0061026200d1
:100a200076058000e5ff2f008502630004827200d6
:100a300074058800110020002e0090006700070058
:100a400000427800614262000482fb0061026200a1
:100a50000402420076058000d5ff2f008502630066
:100a60000482720074058800210020002e0090008e
:100a70005a00070000427800614262000482fb00d5
:100a8000610262004222dd0076058000b5ff2f0082
:100a90008502630004827200740588009680a800b5
:100aa000290037008000eb002e0090004b0007006b
:100ab00000427800614262000482fb006102620031
:100ac0004422dd0096058000f5fe2f0085026300bc
:100ad0000482720094058800110020002e0090000e
:100ae0003e00070000427800614262000482fb0081
:100af000610262004522dd0096058000f5fd2f00b1
:100b000085026300048272009405880021002000a1
:100b10002e00900031000700004278006142620020
:100b20000482fb00610262004622dd00960580001f
:100b3000f5fb2f0085026300048272009405880093
:100b400097a0a800000000000080fa000000060046
:100b50000200fa00000f78001e027800e10f520038
:100b600006003200e20f520006003200e00f520091
:100b700006003a009400a900040037009680a900fe
:100b80000200370097a0a900000000000080fa00d2
:100b9000000006000400fa00008fbe001e0278006c
:100ba00004427800044078000080fa00000006004b
:100bb0000400fa00008fbe001e02be00482bdd00bc
:100bc0004822de0004027300c8aade000442780056
:100bd000044078000080fa00000006000400fa00db
:100be000000f7800110798009e0278001e02900006
:100bf00004aade00044278006142620004407800ea
:100c00000080fa00000006000600fa00000f7800dd
:100c10001107980022079800150020001e0290007e
:100c2000042add009e0272002e02900004aab90080
:100c3000040378002e02900004f0a7000402ea00ea
:100c40000402e9004f22de00170020009e029000ff
:100c5000853add009e836a001e0078009e029000a7
:100c60008582de00e182620005f0a7008502ea00cd
:100c70008502e900cf2ade001e009000802add00f8
:100c80008582530005a2b9000402780004024300e3
:100c9000040078000080fa00000006000400fa005a
:100ca000000f780011079800150020001e02900028
:100cb000042add001e027200040078000080fa00a1
:100cc000000006000400fa00000f780011079800e9
:100cd000150020001e029000042add009e026a001a
:100ce0001e0378001e02900004b2de006102620062
:100cf00004f0a7000402ea000402e9004f22de002b
:100d00001e0390000622dd000482520004007800d9
:100d10000080fa00000006000000fa008000eb00ee
:100d200090012000d9fe07008000eb00a001200008
:100d3000d6fe07008000eb00e0012000d3fe070094
:100d40008000eb0060002000d0fe07000002eb00f6
:100d5000641688000002eb002416880011002000b1
:100d60009001200087fe070011002000a001200054
:100d700084fe07008000eb00e001200081fe0700f8
:100d80008000eb00600020007efe0700ffff3700c0
:020000040000fa
:100d90000008000006000000000000000000000045
:00000001FF
